:03000000020006F5
:03005F0002000399
:0300030002006296
:200062007F007E007D00D280D281D282C283C007C006C00512051CD005D006D00720A049B6
:20008200BF014690000AC006C00512039CD005D00620A035C006C005120167858209D005F8
:2000A200D006E50970107590FEC006C0051202ECD005D00680137401B5090E75907FC006A3
:2000C200C005120317D005D00620A14ABE014790000AC00512039CD00520A13AC0051201B9
:2000E200F685820AD005E50A700C7590FCC0051202ECD00580207401B50A0C75907FC005F3
:20010200120317D005800F7402B50A0A7590BFC005120342D00520B228BD012590000A12D0
:20012200039C20B21C12029BE582F50B70087590F81202EC800B7401B50B0675907F120346
:2001420017A2A0E433FFA2A1E433FEA2B2E433FD900014C007C006C00512039CD005D0061C
:05016200D00702007F40
:20016700C280C28290000112039CD28390000A12039C12045CAF82BF69028016C2839000D8
:200187006412039CD280D2829003E812039C758201221204899003E812039C7E007F00C3CC
:2001A700EE945BEF9400503174302EFCE43FFDEE245FF582EF3405F583E493F50C8C828DCE
:2001C70083C007C00612040690000112039CD006D0070EBE00C90F80C6C2839000641203C5
:2001E7009CD280D2829003E812039C75820022C280C28290000112039CD28390000A1203A5
:200207009C12045CAF82BF69028016C28390006412039CD280D2829003E812039C75820124
:20022700227E007F00C3EE945BEF9400505074302EF582E43FF583C007C0061203C7AD8259
:20024700900001C00512039CD005D006D007EE245FF582EF3405F583E493FCEDB5040280EB
:2002670016C28390006412039CD280D2829003E812039C758202220EBE00AA0F80A7C28399
:2002870090006412039CD280D2829003E812039C75820022C280C28290000112039CD283AA
:2002A70090000A12039C12045CAF82BF69028016C28390006412039CD280D2829003E8126C
:2002C700039C758201221204899003E812039CC28390006412039CD280D2829003E8120373
:0502E7009C758200225D
:20055F007C197D19D2B71162C2B71162DDF6DCF27C197D19D2B7116FC2B7116FDDF6DCF2FA
:20057F007C197D19D2B7117CC2B7117CDDF6DCF280277E0A7F13DFFEDEFA7F0DDFFE227EF5
:1D059F000A7F11DFFEDEFA7F09DFFE227E0A7F0FDFFEDEFA7F07DFFE2280FE5B0040
:2002EC007E007F00D2B7900001C007C00612039CC2B790000112039CD006D0070EBE000168
:20030C000FC3EE9464EF940040DA227E007F00D2B7900001C007C00612039CC2B7900001FB
:20032C0012039CD006D0070EBE00010FC3EE94F4EF940140DA227E007F00D2B7900001C0A7
:20034C0007C00612039CC2B790000112039CD006D0070EBE00010FC3EE94F4EF940140DAF8
:20036C007E007F00D2B7900001C007C00612039CC2B790000112039CD006D0070EBE0001E7
:0B038C000FC3EE94F4EF940140DA225E
:200397007F05DFFE22AD82BD0003BDFF0A7E027FE4DFFEDEFADDF6AC83BC0001227D007E9A
:1003B700027FE4DFFEDEFADDF67B4BDBFEDCEE22BE
:2003C700AE82AF83758220C007C0061204B6120397D006D0078F82C007C0061204B612036C
:2003E70097D006D0078E821204B61203977582001204B6AF82C007120397D0078F8222AE0B
:2004070082AF83758240C007C0061204B6120397D006D0078F82C007C0061204B612039722
:20042700D006D0078E821204B6AF827E00C007C006120397850C821204B6AD82C00512035C
:2004470097D005D006D0078F06E4FFFCED4FF582EC4EF583227582AC1204B612039775826F
:20046700531204B61203977582001204B61203977582111204B6AF82C007120397D0078F5D
:2004870082227582AC1204B61203977582801204B61203977582121204B61203977582131C
:2004A7001204B6AF82C007120397D0078F8222AF827E00C282C007C006120397D006D007E2
:2004C7007D008F04530480E4BC80010424FF92808F04EC2CFFC007C006C005120397D282D8
:2004E700120397D005D006D0078E04EC2CFC30810674014CFB80028C038B06C282C007C041
:1505070006C005120397D005D006D0070DBD080040B08E8222F2
:20051C007590559000C812039C7590AA9000C812039C7590559000C812039C7590AA900002
:1F053C00C812039C7590559000C812039C7590AA9000C812039C7590FF9001F402039CE2
:06003500E478FFF6D8FD9F
:200013007900E94400601B7A009005BC780175A000E493F2A308B8000205A0D9F4DAF275D2
:02003300A0FF2C
:20003B007800E84400600A790175A000E4F309D8FC7800E84400600C7900900001E4F0A3C3
:04005B00D8FCD9FAFA
:0D00060075810C12055BE5826003020003AA
:04055B007582002283
:00000001FF
