:060000000200190201CD0F
:03000B000200F8F8
:030013000201DE09
:17007200E4F508F509F50AF50BF50CF50DF50EF50F75108002001672
:030016000200895C
:20008900758901758CFF758A9CD2A9D28CD2AFD2A8D2AAC28AD2887E007F008E0A8F0B9008
:2000A9000005C007C00612026AD006D0070EBE00010FC374289E74808FF063F08095F05086
:2000C900DA7E287F008E0A8F0B900005C007C00612026AD006D0071EBEFF011FEF30E7E5B3
:2000E900E50D60B3E50CFF04F50C530C0780A8C0E0C0F0C082C083C0D0758CFF758A9C056A
:2001090008E4B508020509C3E5089428E509648094804005E4F508F509C3E508950AE5096A
:200129006480850BF063F08095F05049E50C24F850030201C2E50C240B83F582E50C240C01
:2001490083F583E4735E62666A6E72767A0101010101010101C2908060C291805CC29280A7
:2001690058C2938054C2948050C295804CC2968048C2978044E50C24F8403EE50C240B8341
:20018900F582E50C240C83F583E473A4A8ACB0B4B8BCC00101010101010101D290801AD206
:2001A900918016D2928012D293800ED294800AD2958006D2968002D297D0D0D083D082D0E1
:2001C900F0D0E032C0E0E50D7005750D018003750D00D0E032C020C0E0C0F0C082C083C05E
:2001E90007C006C005C004C003C002C001C000C0D075D00075900090006412026A7590FF4A
:20020900E50C24F8403EE50C240B83F582E50C240C83F583E4732F33373B3F43474B0202D1
:20022900020202020202C290801AC2918016C2928012C293800EC294800AC2958006C296F6
:200249008002C297D0D0D000D001D002D003D004D005D006D007D083D082D0F0D0E0D02079
:010269003262
:12026A00AC830CAD827E037FAADFFEDEFADDF6DCF222F6
:06004800E478FFF6D8FD8C
:200026007900E94400601B7A00900280780175A000E493F2A308B8000205A0D9F4DAF275FE
:02004600A0FF19
:20004E007800E84400600A790175A000E4F309D8FC7800E84400600C7900900001E4F0A3B0
:04006E00D8FCD9FAE7
:0D00190075812012027CE582600302001652
:04027C007582002265
:00000001FF
