:03000000020006F5
:20005F0075087E750930750A6D750B79750C33750D5B750E5F750F7075107F75117B751200
:1F007F00FE7513B07514ED7515F97516B37517DB7518DF7519F0751AFF751BFB02000386
:0300030002009E5A
:20009E00D2A2D2A3C2A0C2A17582001202E185821C85831D9000C81203C47582011202E142
:2000BE0085821C85831D851C1E851D1F1205EDAC82AD83AEF0FFC004C005C006C00790E7CE
:2000DE003575F085743912040FAC82AD83AEF0FFE58124FCF58174C2C0E07486C0E074270F
:2000FE00C0E0743DC0E08C828D838EF0EF1203DBAC82AD83AEF0FFE58124FCF581C004C0FB
:20011E0005C006C00790000075F080743F120662AC82AD83AEF0FFE58124FCF581C004C012
:20013E0005C006C00790000075F0C8744212040FAC82AD83AEF0FFE58124FCF581C3E51EBA
:20015E0094FAE51F940050087520AC75212680108C828D838EF0EF1205B9858220858321CB
:20017E007523E875240385208285218312076EAE82EE2408F987227582081203637523E88B
:20019E0075240385208285218312072575236475240012076EAE82EE2412F9872275820707
:2001BE0012036375236475240085208285218312072575230A75240012076EAE82EE24087A
:2001DE00F9872275820612036375230A752400852082852183120725AE82EE2408F9872235
:2001FE007582051203637523E8752403851E82851F831203E6AE82EE2412F9872275820419
:20021E001203637523E8752403851E82851F831205137523647524001203E6AE82EE2408DC
:20023E00F98722758203120363752364752400851E82851F8312051375230A752400120331
:20025E00E6AE82EE2408F9872275820212036375230A752400851E82851F83120513AE825C
:15027E00EE2408F987227582011203639000C81203C40200A666
:20029300AF827E007D008E04EC2CFEC2A0C007C006C0051203D6D005D006D0078F0453046C
:2002B30080EC24FF92A1C007C006C0051203D6D2A01203D6D005D006D00730A2034306012E
:2002D3008F04EC2CFF0DBD080040BB8E8222AF82C2A3758201C007120293D007BF010A7550
:2002F30082E0120293AF8280087582A0120293AF8253070F8F067F00758200C007C00612A7
:190313000293AD82D006D0077C00ED4FF582EC4EF583D2A3C2A0C2A12223
:20032C00AF827E00C2A0EF23540124FF92A18F05ED2DFFD2A00EBE080040E97F00C2A0E501
:20034C002323540124FF92A1E52325E0F523D2A00FBF080040E722AF82C2A47E018522230A
:20036C008F82C007C00612032CD006D0070EEE24FE50EAD2A42275220175820C120363756D
:20038C00220075820F12036375220075820912036375220775820B12036375220075820AF2
:1803AC001203637F017522008F82C007120363D0070FEF24F750EE220A
:1703C400AC830CAD827E037FAADFFEDEFADDF6DCF2227F05DFFE2213
:0B03DB00A8811818C6B2E7C602056032
:2003E6007A10E4FBFCE58225E0F582E58333F583EB33FBEC33FCEB9523F5F0EC95244006F5
:09040600FCABF0438201DADD22B7
:20040F001204B2BC000302061AEF60FA30D502B2D1E583B4FF03020630E582B4FF030206D6
:20042F0030258340072482400B02061A2483145003020630F582EA8DF0A4A8F0EA8EF0A40F
:20044F0028F8E435F0F9EB8DF0A428E935F0F9E433CA8FF0A429F9EA35F0FAEBF88EF0A4FC
:20046F0029F9EA35F0FAE433FBEC8DF0A429F9EA35F0FAE43BFBE88FF0A42AFAEB35F0FBA4
:20048F00E433CCFD8EF0A42AFAEB35F0FBE43CFCED8FF0A42BFBEC35F0FC20E7031204E0BD
:0304AF000205F94A
:2004B200AA82AB83A2F73392D1F5826002D2F7ACF0E58124F9F8E6FD08E6FE0886F008E6AD
:0E04D200A2F73392D5F5836002D2F7AFF02285
:06003500E478FFF6D8FD9F
:2004E0007804EC7011E58224F8500AF582E4C9CACBFCD8EF22EC7820058220E713D582011B
:1305000022C3E933F9EA33FAEB33FBEC33FCD8EA15822228
:200013007900E94400601B7A0090085A780175A000E493F2A308B8000205A0D9F4DAF27531
:02003300A0FF2C
:20051300E523452460467A01E52325E0F523E524334012F524E5829523E583952440030ADD
:2005330080E6C3E52413F524E52313F523C3E5829523F5F0E58395244005F58385F082C3B8
:0D055300E52413F524E52313F523DAE12256
:200560001204B27900E583B58202800D5003120648E583C395821207A6E5D0C465D020E1A9
:2005800017EA2DFAEB3EFBEC3FFC500974011207A6EC4480FC0205F9C3EA9DFAEB9EFBECFB
:1905A0009FFC500FC3E499F9E49AFAE49BFBE49CFCB2D11204E00205F928
:20003B007800E84400600A790175A000E4F309D8FC7800E84400600C7900900001E4F0A3C3
:04005B00D8FCD9FAFA
:2005B9001207E9700AE582458345F0700122E430D112F4700BE5F0F47006E58330E7012268
:1405D90090800022700AE5F07006E58320E70122907FFF2255
:0C05ED00E4AC83AB82FAF9748E02076460
:2005F900B98003EA13B34010EA2401FAE43BFBE43CFC50047C800582BC000EBB000BBA0046
:2006190008E4F5F0F583F58222A2D1E582138CF092F78B838A8222E4F583F58275F080F405
:0F063900A2D11322E4F583F58275F0C0747F22FD
:1A064800E582C583F582A2D133A2D592D11392D5ECCFFCEBCEFBEACDFA223A
:200662001204B230D502B2D1BF0009BC000302063D020630BC000302061AE583B4FF0BE536
:2006820082B4FF0302063D02061AE582B4FF03020630C395835007247F400B02061A24807E
:2006A200145003020630F582C3ED9AEE9BEF9C40111582C3EA33F9EB33FAEC33FBE433FCBE
:2006C2008005E4CCCBCAF9C08275F019C3E99DEA9EEB9FEC9400D5F002802D400EE99DF979
:2006E200EA9EFAEB9FFBEC9400FCC3B3E833F8E58233F582E58333F583C3E933F9EA33FAD9
:20070200EB33FBEC33FC80C4B3E4F938FAE43582FBE43583FCD082500405827C801204E050
:03072200020611BB
:0D000600758124120856E582600302000394
:20072500C2D5E58330E70DD2D5E4C39582F582E49583F583E52430E70BE4C39523F523E4BB
:160745009524F52412051330D50BE4C39582F582E49583F58322C7
:13075B00FCABF0AA83A982749EC2D1F5821204E00205F98A
:20076E00C2D5E58330E70DD2D5E4C39582F582E49583F583E52430E70DB2D5E4C39523F5F0
:18078E0023E49524F5241203E630D50BE4C39582F582E49583F58322A4
:2007A6006040F82582500274FFF582E824F8501ECCCBCAF9E4CC24F85014CBCAF9E4CB245B
:2007C600F8500BCAF9E4CA24F8500379002224086010F8C3EC13FCEB13FBEA13FAE913F90E
:0307E600D8F12225
:2007E900120844C3749E9582403979001207A630D126E9F42401F582EAF43400F583EBF4EC
:200809003400F5F0ECF43400700AE582458345F0700122E430E70F22EC20E71489828A83E6
:1B0829008BF02230D10AE4F582F583F5F074802274FFF582F583F5F0747F22E2
:12084400AA82AB83A2F73392D1F5826002D2F7ACF022B9
:040856007582002285
:00000001FF
