:04000000020029329F
:01000B0032C2
:0100130032BA
:01001B0032B2
:0300230002021ABC
:1B008200750A00750B00750C01750D03750E01750F02751002751103751204B8
:0300A00002002635
:03002600020114C0
:2000A300AE82AF837401B5130614B5140280028013751A01758208C007C006120262D0063C
:2000C300D0078011751A00758208C007C006120262D006D0077C007D00C3EC9EED64808FD1
:2000E300F063F08095F050288C037407C39BF582EC240CF9871AC007C006C005C00412027E
:2001030062D004D005D006D0070CBC00CC0D80C922758920759850758DFAD28E75A8901282
:2001230002C67E017F00C3EE9409EF6480948050178E82751A0FC007C006120262D006D003
:20014300070EBE00E10F80DE7F007E007D008F158F16E4F518F519FAFB20B211BF030050CF
:200163000E0FBF030A750801750A0180027F0020B311BE0300500E0EBE030A750802750ABA
:200183000180027E0020A011BD0300500E0DBD030A750803750A0180027D0020A11574FD4F
:2001A3002515401205157403B5150B750804750A0180037515007401B50A06850899750A5D
:2001C300007401B50B1DAC098C16750B00EA240CF9E7FCB516087518017519008005E4F5B0
:2001E30018F519EA240CF9E7B516080ABA00010B7516008518138519148A828B83C007C0AB
:2002030006C005C003C0021200A3D002D003D005D006D00702015C10980280068599097584
:080223000B011099028000326A
:03009D00752000CB
:20022B00AF827E00C2B6EF23540124FF92B48F05ED2DFFD2B60EBE080040E97F00C2B6E5AE
:20024B002123540124FF92B4E52125E0F521D2B60FBF080040E722AF82C2B57E01851A21E2
:20026B008F82C007C00612022BD006D0070EEE24FE50EAD2B522AF82C2B57E01C3EF9E5021
:20028B0014752100758200C007C00612022BD006D0071E80E7851C21851B82C00712022BCA
:2002AB00D0071FBF01004010752100758200C00712022BD0071F80EBD2B522751A01758209
:2002CB000C120262751A0075820F120262751AFF758209120262751A0775820B12026275FF
:2002EB001A0075820A1202627F01751A008F82C007120262D0070FEF24F750EE22AD82AED8
:20030B0083AFF07C018C027B001ABAFF011BEA2DFAEB3EF98F038A8289838BF012045EF57A
:20032B001A8C82C007C006C005C004120262D004D005D006D0070CEC24F750C922AF827EAB
:20034B00018E047D001CBCFF011DEC251DFCED351EFDAB1F8C828D838BF012045EF51C8EB0
:20036B001B8F82C007C006120281D006D0070EEE24F750CD22AD82AE83AFF07C08AA207B59
:20038B00008C007900EAC398FAEB99FB74082AF582E43BF5837521088922C007C006C00540
:2003AB00C00412047AAA82AB83D004D005D006D007EA2DFAEB3EF98F038A8289838BF012C4
:2003CB00045EF51C8C1B758201C007C006C005C004120281D004D005D006D0071CBC010026
:1403EB00509BE52004F52024F750037520009003E80203FF73
:1203FF00AC830CAD827E037FAADFFEDEFADDF6DCF22260
:06005800E478FFF6D8FD7C
:200036007900E94400601B7A009004B4780175A000E493F2A308B8000205A0D9F4DAF275B8
:02005600A0FF09
:20041100E521452260467A01E52125E0F521E522334012F522E5829521E583952240030AF0
:2004310080E6C3E52213F522E52113F521C3E5829521F5F0E58395224005F58385F082C3C7
:0D045100E52213F522E52113F521DAE12261
:20005E007800E84400600A790175A000E4F309D8FC7800E84400600C7900900001E4F0A3A0
:04007E00D8FCD9FAD7
:0D0029007581221204B0E5826003020026FA
:1C045E0020F71430F6148883A88220F507E6A88375830022E280F7E49322E022AD
:20047A00C2D5E58330E70DD2D5E4C39582F582E49583F583E52230E70BE4C39521F521E46F
:16049A009522F52212041130D50BE4C39582F582E49583F583227C
:0404B000758200222F
:00000001FF
