:03000000020006F5
:03005F0002000399
:0300030002006296
:100062007C007D007E007F007BFFC007C006C005CC
:10007200C004C0031202DDD003D004D005D006D0E4
:100082000775800FAA807580F0E5804202EAB50309
:100092000302015CBAFF0302015C8C1B8D1C8E1DE6
:1000A2008F1E90000AE4F5F0C002120407AC82AD84
:1000B20083AEF0FFD002BAB7028078BABB03020166
:1000C20042BABD0302014FBAD7028040BADB0280B6
:1000D20048BADD028050BAE702800ABAEB02801207
:1000E200BAED77801A0CBC00090DBD00050EBE00EA
:1000F200010F0CBC00090DBD00050EBE00010F0C66
:10010200BC00090DBD00050EBE00010F0CBC0009AC
:100112000DBD00050EBE00010F0CBC00090DBD0097
:10012200050EBE00010F0CBC00090DBD00050EBE80
:1001320000010F0CBC00090DBD00050EBE00010F31
:100142000CBC00090DBD00050EBE00010F0CBC0069
:10015200090DBD00050EBE00010F8A038C828D833E
:100162008EF0EFC007C006C005C004C003120185AF
:1001720090000A12021DD003D004D005D006D00789
:1001820002008385820885830985F00AF50B750CC8
:100192007E750D30750E6D750F7975103375115BA7
:1001A20075125F75137075147F75157BE4F516F57E
:1001B20017C3E49508E49509E4950A7480850BF069
:1001C20063F08095F05053751B0AE4F51CF51DF59C
:1001D2001E850882850983850AF0E50B120475AA3B
:1001E200820516E4B516020517851682EA240CF973
:1001F200871812027B751B0AE4F51CF51DF51E8596
:100202000882850983850AF0E50B1204C4858208F9
:1002120085830985F00AF50B809722AD82BD000324
:10022200BDFF0A7E037FAADFFEDEFADDF6AC83BCE9
:100232000001227D007E037FAADFFEDEFADDF6DC0E
:10024200F222AF827E00C2A0EF23540124FF92A2C9
:100252008F05ED2DFFD2A00EBE080040E97F00C23F
:10026200A0E51B23540124FF92A2E51B25E0F51B08
:10027200D2A00FBF080040E722AF82C2A17E018553
:10028200181B8F82C007C006120244D006D0070E88
:10029200EE24FE50EAD2A122AF82C2A17E01C3EFB8
:1002A2009E5014751B00758200C007C006120244DE
:1002B200D006D0071E80E7851A1B851982C0071257
:1002C2000244D0071FEF6010751B00758200C00743
:1002D200120244D0071F80EDD2A122751801758247
:1002E2000C12027B75180075820F12027B751800C2
:1002F20075820912027B75180775820B12027B75D3
:10030200180075820A12027B7F017518008F82C065
:100312000712027BD0070FEF24F750EE22F9E51BFC
:10032200451C451D451E60777800C308E51E20E781
:100332003BE51B25E0F51BE51C33F51CE51D33F5FC
:100342001DE51E33F51EE582951BE583951CE5F040
:10035200951DE9951E50D4C3E51E13F51EE51D1328
:10036200F51DE51C13F51CE51B13F51BE582951B1A
:10037200FCE583951CFDE5F0951DFEE9951E400701
:10038200F98EF08D838C82C3E51E13F51EE51D13D5
:10039200F51DE51C13F51CE51B13F51BD8CEE92250
:1003A200FB7A20E4FCFDFEFFE5822582F582E583EF
:1003B20033F583E5F033F5F0EB33FB4017DAE980F0
:1003C20042E5822582F582E58333F583E5F033F554
:1003D200F0EB33FBEC33FCED33FDEE33FEEF33FF9A
:1003E200EC951BED951CEE951DEF951E4013EC95BB
:1003F2001BFCED951CFDEE951DFEEF951EFF438245
:0504020001DABEEB224F
:06003500E478FFF6D8FD9F
:100013007900E94400601B7A0090051A780175A005
:1000230000E493F2A308B8000205A0D9F4DAF2754C
:02003300A0FF2C
:10040700AAF0FBE582851BF0A4FCADF0E583851B14
:10041700F0A42DFDE435F0FEE582851CF0A42DFD4A
:10042700E5F03EFEE433FFEA851BF0A42EFEE5F07F
:100437003FFFE583851CF0A42EFEE5F03FFFE58234
:10044700851DF0A42EFEE5F03FFFEB851BF0A42FE2
:10045700FFEA851CF0A42FFFE583851DF0A42FFF7D
:0E046700E582851EF0A42F8EF08D838C8222FC
:10003B007800E84400600A790175A000E4F309D860
:10004B00FC7800E84400600C7900900001E4F0A318
:04005B00D8FCD9FAFA
:10047500F9C2D530E715D2D5E4C39582F582E49566
:1004850083F583E495F0F5F0E499F9E51E30E71579
:10049500E4C3951BF51BE4951CF51CE4951DF51DA2
:1004A500E4951EF51EE912031F30D512E4C39582AB
:1004B500F582E49583F583E495F0F5F0E49922FB64
:1004C500C2D530E715D2D5E4C39582F582E495838C
:1004D500F583E495F0F5F0E49BFBE51E30E717B2F4
:1004E500D5E4C3951BF51BE4951CF51CE4951DF59A
:1004F5001DE4951EF51EEB1203A230D513FBE4C3D4
:100505009582F582E49583F583E495F0F5F0E49B17
:0105150022C3
:0D00060075811E120516E5826003020003DD
:0405160075820022C8
:00000001FF
