:0400000002001132B7
:03000B000200CC24
:10006A00750801750900E4F50AF50B750C01F50D23
:10007A00750E01F50F751005F511751205F5137555
:10008A001406F515751606F517751805F519751A76
:10009A0005F51B751C04F51D751E04F51F75200357
:1000AA00F521752203F523752402F525752602F537
:1000BA0027752801F529752A01F52BF52CF52D024E
:0200CA00000E26
:03000E00020123C9
:1000CC00C0E0C0F0C0D0758CFC758A187401B50AFC
:1000DC000614B50B0280028008052EE4B52E02052D
:1000EC002F74F4B52E2A7401B52F25C3740F952CDB
:1000FC007480852DF063F08095F0400A052CE4B5F2
:10010C002C09052D8005E4F52CF52DE4F52EF52FA5
:10011C00D0D0D0F0D0E032758901758CFC758A187E
:10012C00D2A9D2AFD28CD2A120A1287401B50806D5
:10013C0014B509028002801B75822812029120A13D
:10014C0012E50A450B7007750A01F50B8005E4F5FD
:10015C000AF50BA2A1E433F5087509007401B50A80
:10016C000614B50B02800280BDE52C252CFEE52D76
:10017C0033EE240CF9870609870719BE0115BF0059
:10018C0012D2B7C007C00612022FC2B712022FD06C
:10019C0006D007BE0215BF0012D2B7C007C00612A8
:1001AC00023DC2B712023DD006D007BE0315BF00F8
:1001BC0012D2B7C007C00612024BC2B712024BD004
:1001CC0006D007BE0415BF0012D2B7C007C0061276
:1001DC000259C2B7120259D006D007BE0515BF008E
:1001EC0012D2B7C007C006120267C2B7120267D09C
:1001FC0006D007BE0615BF0012D2B7C007C0061244
:10020C000275C2B7120275D006D007BE0705BF0033
:10021C00028003020132D2B7120283C2B7120283E8
:10022C000201327E0A7F13DFFEDEFA7F0DDFFE2233
:10023C00227E0A7F11DFFEDEFA7F09DFFE22227E9C
:10024C000A7F0FDFFEDEFA7F07DFFE22227E0A7FA7
:10025C000EDFFEDEFA7F08DFFE22227E0A7F0CDF35
:10026C00FEDEFA7F0ADFFE22227E0A7F0BDFFEDE35
:10027C00FA7F04DFFE22227E0A7F09DFFEDEFA7F90
:10028C0007DFFE2222AD827E027FE4DFFEDEFADD96
:02029C00F62248
:06004000E478FFF6D8FD94
:10001E007900E94400601B7A009002A2780175A075
:10002E0000E493F2A308B8000205A0D9F4DAF27541
:02003E00A0FF21
:100046007800E84400600A790175A000E4F309D855
:10005600FC7800E84400600C7900900001E4F0A30D
:04006600D8FCD9FAEF
:0D00110075812F12029EE582600302000E31
:04029E007582002243
:00000001FF
