:03000000020006F5
:03005F0002000399
:0300030002006296
:100062007F007E007D00D280D281D282C283C0070F
:10007200C006C005120646D005D006D00720A0490A
:10008200BF014690000AC006C0051204C6D005D0C2
:100092000620A035C006C005120167858209D00579
:1000A200D006E50970107590FEC006C00512041650
:1000B200D005D00680137401B5090E75907FC00675
:1000C200C005120441D005D00620A14ABE014790C6
:1000D200000AC0051204C6D00520A13AC0051202CA
:1000E2006B85820AD005E50A700C7590FCC005127A
:1000F2000416D00580207401B50A0C75907FC005E6
:10010200120441D005800F7402B50A0A7590BFC06F
:100112000512046CD00520B228BD012590000A12F8
:1001220004C620B21C1203C5E582F50B7008759057
:10013200F8120416800B7401B50B0675907F120439
:1001420041A2A0E433FFA2A1E433FEA2B2E433FD54
:10015200900014C007C006C0051204C6D005D00620
:10016200D00702007FC280C2829000011204C6D270
:100172008390000A1204C6120586AF82BF6902800C
:1001820016C2839000641204C6D280D2829003E821
:100192001204C6758201221205B39003E81204C646
:1001A2007E007F00C3EE9403EF9400502AEE248970
:1001B200F582EF3406F583E493F50C8E828F83C0CB
:1001C20007C0061205309000011204C6D006D007FF
:1001D2000EBE00D00F80CD7E007F00C3EE9405EFEF
:1001E2009400503174132EFCE43FFDEE248EF58210
:1001F200EF3406F583E493F50C8C828D83C007C03F
:10020200061205309000011204C6D006D0070EBEB9
:1002120000C90F80C67E007F00C3EE9420EF9400D9
:10022200503174302EFCE43FFDEE2495F582EF341C
:1002320006F583E493F50C8C828D83C007C0061209
:1002420005309000011204C6D006D0070EBE00C9C8
:100252000F80C6C2839000641204C6D280D28290FC
:1002620003E81204C675820022C280C28290000195
:100272001204C6D28390000A1204C6120586AF8207
:10028200BF69028016C2839000641204C6D280D273
:10029200829003E81204C6758201227E007F00C3A9
:1002A200EE9403EF9400504B8E828F83C007C006FA
:1002B2001204F1AD82900001C0051204C6D005D02F
:1002C20006D007EE2489F582EF3406F583E493FC29
:1002D200EDB504028016C2839000641204C6D28077
:1002E200D2829003E81204C6758202220EBE00AFCB
:1002F2000F80AC7E007F00C3EE9405EF9400505057
:1003020074132EF582E43FF583C007C0061204F190
:10031200AD82900001C0051204C6D005D006D007F8
:10032200EE248EF582EF3406F583E493FCEDB504FA
:10033200028016C2839000641204C6D280D28290D8
:1003420003E81204C6758202220EBE00AA0F80A71D
:100352007E007F00C3EE9420EF9400505074302E44
:10036200F582E43FF583C007C0061204F1AD829026
:100372000001C0051204C6D005D006D007EE2495B0
:10038200F582EF3406F583E493FCEDB504028016A2
:10039200C2839000641204C6D280D2829003E81213
:1003A20004C6758202220EBE00AA0F80A7C28390E5
:1003B20000641204C6D280D2829003E81204C67589
:1003C200820022C280C2829000011204C6D28390AF
:1003D200000A1204C6120586AF82BF69028016C2E5
:1003E200839000641204C6D280D2829003E8120481
:1003F200C6758201221205B39003E81204C6C283B5
:100402009000641204C6D280D2829003E81204C61D
:0404120075820022CD
:100689000200300300C2907C0A320500D290D28A5F
:1006990075A884BC0002D290120043DCFB80F47D73
:0E06A900647E027FE4DFFEDEFADDF622200032
:100416007E007F00D2B7900001C007C0061204C656
:10042600C2B79000011204C6D006D0070EBE000166
:100436000FC3EE9464EF940040DA227E007F00D270
:10044600B7900001C007C0061204C6C2B7900001EB
:100456001204C6D006D0070EBE00010FC3EE94F4F8
:10046600EF940140DA227E007F00D2B7900001C0EF
:1004760007C0061204C6C2B79000011204C6D00611
:10048600D0070EBE00010FC3EE94F4EF940140DADC
:100496007E007F00D2B7900001C007C0061204C6D6
:1004A600C2B79000011204C6D006D0070EBE0001E6
:1004B6000FC3EE94F4EF940140DA227F05DFFE22AB
:1004C600AD82BD0003BDFF0A7E027FE4DFFEDEFAD9
:1004D600DDF6AC83BC0001227D007E027FE4DFFEF8
:1004E600DEFADDF67B4BDBFEDCEE22AE82AF8375F9
:1004F6008220C007C0061205E01204C1D006D0074C
:100506008F82C007C0061205E01204C1D006D007CC
:100516008E821205E01204C17582001205E0AF82D8
:10052600C0071204C1D0078F8222AE82AF837582C4
:1005360040C007C0061205E01204C1D006D0078FDE
:1005460082C007C0061205E01204C1D006D0078E8D
:10055600821205E0AF827E00C007C0061204C18584
:100566000C821205E0AD82C0051204C1D005D0068A
:10057600D0078F06E4FFFCED4FF582EC4EF58322A3
:100586007582AC1205E01204C17582531205E012A1
:1005960004C17582001205E01204C17582111205AC
:1005A600E0AF82C0071204C1D0078F82227582ACE9
:1005B6001205E01204C17582801205E01204C175AD
:1005C60082121205E01204C17582131205E0AF8291
:1005D600C0071204C1D0078F8222AF827E00C2827A
:1005E600C007C0061204C1D006D0077D008F045391
:1005F6000480E4BC80010424FF92808F04EC2CFF6D
:10060600C007C006C0051204C1D2821204C1D005BB
:10061600D006D0078E04EC2CFC30810674014CFB0E
:1006260080028C038B06C282C007C006C005120476
:10063600C1D005D006D0070DBD080040B08E82227D
:100646007590559000C81204C67590AA9000C812FD
:1006560004C67590559000C81204C67590AA9000FD
:10066600C81204C67590559000C81204C67590AAA3
:0F0676009000C81204C67590FF9001F40204C6EC
:06003500E478FFF6D8FD9F
:100013007900E94400601B7A009006B7780175A067
:1000230000E493F2A308B8000205A0D9F4DAF2754C
:02003300A0FF2C
:10003B007800E84400600A790175A000E4F309D860
:10004B00FC7800E84400600C7900900001E4F0A318
:04005B00D8FCD9FAFA
:0D00060075810C120685E58260030200037F
:040685007582002258
:00000001FF
