:03000000020006F5
:03005F0002000399
:0300030002006296
:20006200750880750900750A00750B00750C00750D00750E00750F001202C67F008F057E8F
:20008200000F751B078E1C8D828E83C0071203EB751B04751C001203B5AD828D10900008D4
:2000A20075F0401200D7D0077E088E05ED142408F9871A8E19758201C007C006120283D066
:2000C20006D0071EBE010050E19000C8C007120206D00780A885821185831285F013E5104C
:2000E200702C8511828512838513F0120399FC7B00751B028B1C8C828B831203EBAB82AC55
:20010200838511828512838513F0EB1203087401B510667B007C0079007A00C374069974C4
:20012200808AF063F08095F0404FE92511F514EA3512F5158513168514828515838516F008
:20014200120399F8602874012BFEE43CFFEE2511FEEF3512FFAD138E828F838DF0E81203FF
:20016200088514828515838516F0E402030809B900010A89038A0480A27402B510207407E2
:200182002511FDE43512FEAF138D828E838FF012039925E0FC8D828E838FF01203087403BE
:2001A200B510607514077515007C077D00C3EC9401ED64809480404BEC2511F9ED3512FA01
:2001C200AB1389828A838BF0120399F5176029E51424FFFEE51534FFFFEE2511FEEF3512EB
:2001E200F8AF138E8288838FF0E51712030889828A838BF0E40203081CBCFF011D8C148DEA
:040202001580AA2297
:20020600AD82BD0003BDFF0A7E037FAADFFEDEFADDF6AC83BC0001227D007E037FAADFFEDF
:07022600DEFADDF6DCF22236
:20022D00AF827E00C2A0EF23540124FF92A28F05ED2DFFD2A00EBE080040E97F00C2A0E500
:20024D001B23540124FF92A2E51B25E0F51BD2A00FBF080040E722AF82C2A17E0185181B36
:20026D008F82C007C00612022DD006D0070EEE24FD50EAD2A122AF82C2A17E02C3EF9E5045
:20028D0014751B00758200C007C00612022DD006D0071E80E7851A1B851982C00712022DD4
:2002AD00D0071FEF6010751B00758200C00712022DD0071F80EDD2A12275180175820C12B2
:2002CD00026475180075820F12026475180075820912026475180775820B12026475180000
:1B02ED0075820A1202647F017518008F82C007120264D0070FEF24F750EE22D0
:06003500E478FFF6D8FD9F
:200013007900E94400601B7A00900427780175A000E493F2A308B8000205A0D9F4DAF27568
:02003300A0FF2C
:1B03080020F71130F6138883A88220F509F6A8837583002280FEF280F5F022F4
:20032300E51B451C60467A01E51B25E0F51BE51C334012F51CE582951BE583951C40030A0F
:2003430080E6C3E51C13F51CE51B13F51BC3E582951BF5F0E583951C4005F58385F082C3DA
:0D036300E51C13F51CE51B13F51BDAE12268
:20003B007800E84400600A790175A000E4F309D8FC7800E84400600C7900900001E4F0A3C3
:04005B00D8FCD9FAFA
:200370007A10E4FBFCE58225E0F582E58333F583EB33FBEC33FCEB951BF5F0EC951C40067B
:09039000FCABF0438201DADD222E
:0D00060075811C120423E5826003020003D3
:1C03990020F71430F6148883A88220F507E6A88375830022E280F7E49322E02273
:2003B500C2D5E58330E70DD2D5E4C39582F582E49583F583E51C30E70BE4C3951BF51BE447
:1603D500951CF51C12032330D50BE4C39582F582E49583F583223D
:2003EB00C2D5E58330E70DD2D5E4C39582F582E49583F583E51C30E70DB2D5E4C3951BF587
:18040B001BE4951CF51C12037030D50BE4C39582F582E49583F58322B8
:0404230075820022BC
:00000001FF
