:0400000002001132B7
:03000B000200747C
:0A006A00E4F521F522F52302000E53
:03000E000200E30A
:20007400C020C0E0C0F0C082C083C007C006C005C004C003C002C001C000C0D075D0007551
:200094008CFC758A180521E4B52102052220A41C7401B52317AC21E522FD3395E0FE8C82DB
:2000B4008D838EF01200F9E4F521F522A2A4E433F523D0D0D000D001D002D003D004D0057E
:2000D400D006D007D083D082D0F0D0E0D02032758901758CFC758A18D2A9D2AFD28C1202A7
:2000F4005DD2A480FE85822485832585F026F52775287E752930752A6D752B79752C337535
:200114002D5B752E5F752F7075307F75317B7532FE7533B07534ED7535F97536B37537DBCD
:200134007538DF7539F0753AFF753BFB7A007B00C3E49524E49525E4952674808527F063A3
:20015400F08095F040030201D50ABA00010B75090AE4F50AF50BF50C85248285258385263C
:20017400F0E527C003C002120399AC82D002D003BA040BBB0008EC2432F987078006EC247E
:2001940028F987078A828F08C003C00212023ED002D00375090AE4F50AF50BF50C852482E6
:2001B4008525838526F0E527C003C0021203E885822485832585F026F527D002D00302011E
:2001D400448A068B07C3EE9404EF6480948050220EBE00010FBE0407BF0004AD328002AD8D
:1301F400288E828D08C007C00612023ED006D00780D3222A
:20020700AF827E00C2A0EF23540124FF92A28F05ED2DFFD2A00EBE080040E97F00C2A0E526
:200227000923540124FF92A2E50925E0F509D2A00FBF080040E722AF82C2A17E01850809B4
:200247008F82C007C006120207D006D0070EEE24FE50EAD2A12275080175820C12023E75FC
:20026700080075820F12023E75080075820912023E75080775820B12023E75080075820AF2
:1802870012023E7F017508008F82C00712023ED0070FEF24F750EE2296
:12029F00AC830CAD827E037FAADFFEDEFADDF6DCF222C1
:2002B100F9E509450A450B450C60777800C308E50C20E73BE50925E0F509E50A33F50AE512
:2002D1000B33F50BE50C33F50CE5829509E583950AE5F0950BE9950C50D4C3E50C13F50CB3
:2002F100E50B13F50BE50A13F50AE50913F509E5829509FCE583950AFDE5F0950BFEE995F4
:200311000C4007F98EF08D838C82C3E50C13F50CE50B13F50BE50A13F50AE50913F509D841
:03033100CEE922F0
:20033400FB7A20E4FCFDFEFFE5822582F582E58333F583E5F033F5F0EB33FB4017DAE98002
:2003540042E5822582F582E58333F583E5F033F5F0EB33FBEC33FCED33FDEE33FEEF33FF31
:20037400EC9509ED950AEE950BEF950C4013EC9509FCED950AFDEE950BFEEF950CFF4382F3
:0503940001DABEEB22BE
:06004000E478FFF6D8FD94
:20001E007900E94400601B7A0090043E780175A000E493F2A308B8000205A0D9F4DAF27546
:02003E00A0FF21
:200046007800E84400600A790175A000E4F309D8FC7800E84400600C7900900001E4F0A3B8
:04006600D8FCD9FAEF
:20039900F9C2D530E715D2D5E4C39582F582E49583F583E495F0F5F0E499F9E50C30E71557
:2003B900E4C39509F509E4950AF50AE4950BF50BE4950CF50CE91202B130D512E4C39582D2
:0F03D900F582E49583F583E495F0F5F0E499223D
:2003E800FBC2D530E715D2D5E4C39582F582E49583F583E495F0F5F0E49BFBE50C30E71700
:20040800B2D5E4C39509F509E4950AF50AE4950BF50BE4950CF50CEB12033430D513FBE453
:12042800C39582F582E49583F583E495F0F5F0E49B220E
:0D00110075813B12043AE582600302000E87
:04043A0075820022A5
:00000001FF
