:03000000020006F5
:03005F0002000399
:0300030002006296
:100062007F807E017D017C01D2A2D2A3D2A4C2A54F
:10007200D2A6D2A720A259BE015690000AC007C03C
:1000820005C004120298D004D005D00720A241EF87
:10009200C313FF70027F80EFF4F590900320C00736
:1000A200C005C004120298D004D005D00720A220B7
:1000B200EFC313FF70027F80EFF4F590900032C01F
:1000C20007C005C004120298D004D005D00780DD15
:1000D200A2A2E433FE20A3057F017590FE20A405B1
:1000E2007F027590FD90000AC007C006C005C004DB
:1000F200120298D004D005D006D007D2A5C2A6D24B
:10010200A720A2057F047590FB20A35BBD01589038
:10011200000AC007C006C004120298D004D006D05C
:100122000720A3438F03EB2BFF70027F01EFF4F54F
:1001320090900320C007C006C004120298D004D0D9
:1001420006D00720A3218F03EB2BFF70027F01EF64
:10015200F4F590900032C007C006C004120298D095
:1001620004D006D00780DCA2A3E433FD20A4057FDF
:10017200107590EF90000AC007C006C005C00412B7
:100182000298D004D005D006D007D2A5D2A6C2A725
:1001920020A2057F207590DF20A3057F407590BFC8
:1001A20030A40302027ABC0102800302027A9000A8
:1001B2000AC007C006C005120298D005D006D007B3
:1001C20030A40302027A900064C007C006C0051280
:1001D2000298D005D006D0077B0020A40302024D6E
:1001E20079007A00C3E994C8EA64809480502A9026
:1001F2000001C007C006C005C003C002C001120250
:1002020098D001D002D003D005D006D00709B9009A
:10021200010A20A4CF7B0180CBEB700EEFC313FF4A
:1002220070027F80EFF4F590804EBF01047F208042
:1002320014BF02047F40800DBF04047F808006EF5C
:10024200C423541FFFEFF4F590802D9003E8C007FC
:10025200C006C005120298D005D006D00720A41807
:10026200BF01047F40800DBF02047F808006EF0340
:1002720003543FFFEFF4F590A2A4E433FC90000A8C
:10028200C007C006C005C004120298D004D005D031
:1002920006D007020070AD82BD0003BDFF0A7E03D7
:1002A2007FAADFFEDEFADDF6AC83BC0001227D0010
:0D02B2007E037FAADFFEDEFADDF6DCF2221D
:06003500E478FFF6D8FD9F
:100013007900E94400601B7A009002C3780175A05F
:1000230000E493F2A308B8000205A0D9F4DAF2754C
:02003300A0FF2C
:10003B007800E84400600A790175A000E4F309D860
:10004B00FC7800E84400600C7900900001E4F0A318
:04005B00D8FCD9FAFA
:0D0006007581071202BFE58260030200034E
:0402BF007582002222
:00000001FF
