:03000000020006F5
:1C005F00750A00E4F50BF50CF50DF50EF50FF510F511F512F513F514F515F516E0
:0300870002000371
:0300030002008A6E
:20008A00D281D28012050A1202BD751A287582041206209006C075F0801205CA9003E8122C
:2000AA0002AB751A287582041206209006C675F0801205CA7E3C7F007D047B3C7C007A0412
:2000CA0090000B75F040C007C006C005C004C003C00212035A90001175F040120429D00275
:2000EA00D003D004D005D006D007E50E30E716C374789E74808FF063F08095F040077405D5
:20010A002EFEE43FFFC3E4950D7480850EF063F08095F0501AEE24FBFEEF34FFFFC3E49E94
:20012A0074808FF063F08095F040047E007F00E50C30E70DC374868DF063F08095F04001C1
:20014A000DC3E4950B7480850CF063F08095F05009C3ED6480948140011D8A828B1AC0079C
:20016A00C006C005120620758220120579D005D0068D828E1AC006C00512062075823012AD
:20018A000579D005D006D0078D028E038F049000FAC007C006C005C004C003C0021202ABBE
:0F01AA00D002D003D004D005D006D0070200CA7F
:0C06C00053544152540020202020200000
:2001B900D281D2801202A6C2811202A6C28022C281D2801202A6D2810202A6A2009281D293
:2001D900801202A6C2800202A6D2801202A6A28192D7C2801202A6A2D722AF827E008F056E
:2001F900ED2DFFA2D79281D280C007C0061202A6C2801202A6D006D0070EBE080040DF020A
:2002190001E27F00D2817E008F05ED2DFDD280C006C0051202A6D005D006A281E4334DFF1F
:20023900C280C007C0061202A6D006D0070EBE080040D58F8222AF82C0071201B9D0078F29
:20025900821201F38517821201F38518821201F30201C8AF82C0071201B9D0078F82C00776
:200279001201F38519821201F31201C81201B9D00774014FF5821201F312021BAF82D20048
:12029900C0071201D41201C8D0078F82227F05DFFE223D
:1202AB00AC830CAD827E037FAADFFEDEFADDF6DCF222B5
:0C007B0075210075220175230675240014
:2002BD009000641202AB752A6B752B007582D012034B9000641202AB752A68752B07758245
:2002DD00D012034B752A6B752B017582D012034B752A1A752B037582D012034B752A19754F
:2002FD002B007582D012034BE522C40354F8F52B752A1B7582D012034BE521C40354F8F566
:20031D002B752A1C7582D012034B752A1D752B037582D012034B752A37752B227582D012BC
:20033D00034B752A38752B007582D002034B852A17852B1802024F852C1902026C85822D75
:20035D0085832E85F02F752C3B7582D0120354E582F524752C3C7582D0120354E582F5258C
:20037D00752C3D7582D0120354E582F526752C3E7582D0120354E582F527752C3F7582D097
:20039D00120354E582F528752C407582D0120354E582F529AC247B00AA257F00EA4203EF06
:2003BD004204852D82852E83852FF0EB120668A3EC1206687402252DFDE4352EFEAF2FABBF
:2003DD00267C008B318C30AA27E5304202E53142048D828E838FF0EA120668A3EC12066848
:2003FD007404252DFDE4352EFEAF2FAB287C008B318C30AA29E5304202E53142048D828E0A
:20041D00838FF0EA120668A3EC02066885823285833385F034752C487582D0120354E582B7
:20043D00F529752C477582D0120354E582F528752C467582D0120354E582F527752C4575F0
:20045D0082D0120354E582F526752C447582D0120354E582F525752C437582D0120354ACEC
:20047D00828C248C037C00AA257F00EA4204EF42038532828533838534F0EC120668A3EB59
:20049D0012066874022532FDE43533FEAF34AB267C008B368C35AA27E5354202E536420469
:2004BD008D828E838FF0EA120668A3EC12066874042532FDE43533FEAF34AB287C008B36FE
:2004DD008C35AA29E5354202E53642048D828E838FF0EA120668A3EC020668752A6B752BFA
:0D04FD00807582D012034B9000640202ABA8
:20050A007582A812065075823F1206507582D3120650758200120650758240120650758205
:20052A00A11206507582C81206507582DA12065075821212065075828112065075827F126F
:20054A0006507582A41206507582A61206507582D512065075828012065075828D12065034
:20056A007582141206507582AF1206500205F5AF82BF0A01227E00EF24E0F51BEE34FFF540
:20058A001C900005120683AE82AF837D008D037C00EB2EFBEC3FFCEB24CCF582EC3406F572
:2005AA0083E493F582C007C006C00512065CD005D006D0070DBD050040D375820002065C3B
:2005CA00AD82AE83AFF08D828E838FF01206A0FC60188C820DBD00010EC007C006C00512FC
:2005EA000579D005D006D00780DC227F00751A008F82C007120620D0077E00758200C00742
:20060A00C00612065CD006D0070EBE800040EC0FBF080040D822AF82AE1A74022EF51AAE07
:20062A001A740F5EF582C007C006120650D006EEC4540FFE74104EF582120650D00774B0B4
:1E064A004FF58202065085821875170075827802024F85821875174075827802024F5A
:2006CC00000000000000002F00000007000700147F147F14242A7F2A12231308646236490B
:2006EC005522500005030000001C2241000041221C0014083E081408083E08080000A0604D
:20070C00000808080808006060000020100804023E5149453E00427F4000426151494621A7
:20072C0041454B311814127F1027454545393C4A4949300171090503364949493606494905
:20074C00291E00363600000056360000081422410014141414140041221408020151090689
:20076C00324959513E7C1211127C7F494949363E414141227F4141221C7F494949417F09C8
:20078C000909013E4149497A7F0808087F00417F41002040413F017F081422417F4040407A
:2007AC00407F020C027F7F0408107F3E4141413E7F090909063E4151215E7F091929464641
:2007CC004949493101017F01013F4040403F1F2040201F3F4038403F6314081463070870D7
:2007EC0008076151494543007F41410055AA55AA550041417F0004020102044040404040B9
:20080C00000305000020545454787F484444383844444420384444487F3854545418087E2C
:20082C0009010218A4A4A47C7F0804047800447D40004080847D007F1028440000417F405C
:20084C00007C041804787C080404783844444438FC2424241818242418FC7C080404084868
:20086C0054545420043F4440203C4040207C1C2040201C3C4030403C44281028441CA0A0ED
:1B088C00A07C4464544C4400107C82000000FF000000827C1000000609090670
:06003500E478FFF6D8FD9F
:200013007900E94400601B7A009008A7780175A000E493F2A308B8000205A0D9F4DAF275E4
:02003300A0FF2C
:1B06680020F71130F6138883A88220F509F6A8837583002280FEF280F5F02291
:1D068300E582851BF0A4C582C0F0851CF0A4D0F025F0C583851BF0A42583F5832200
:20003B007800E84400600A790175A000E4F309D8FC7800E84400600C7900900001E4F0A3C3
:04005B00D8FCD9FAFA
:0D0006007581361206BCE58260030200031E
:1C06A00020F71430F6148883A88220F507E6A88375830022E280F7E49322E02269
:0406BC007582002221
:00000001FF
